{
  "address": "0xc5743e2de669313737667164A5eB348932371981",
  "abi": [
    {
      "anonymous": false,
      "inputs": [
        {
          "indexed": true,
          "internalType": "address",
          "name": "from",
          "type": "address"
        },
        {
          "indexed": true,
          "internalType": "address",
          "name": "to",
          "type": "address"
        },
        {
          "indexed": false,
          "internalType": "uint256",
          "name": "amount",
          "type": "uint256"
        }
      ],
      "name": "Donation",
      "type": "event"
    },
    {
      "inputs": [
        {
          "internalType": "address",
          "name": "",
          "type": "address"
        }
      ],
      "name": "balances",
      "outputs": [
        {
          "internalType": "uint256",
          "name": "",
          "type": "uint256"
        }
      ],
      "stateMutability": "view",
      "type": "function"
    },
    {
      "inputs": [
        {
          "internalType": "address",
          "name": "streamer",
          "type": "address"
        }
      ],
      "name": "donateToStreamer",
      "outputs": [],
      "stateMutability": "payable",
      "type": "function"
    },
    {
      "inputs": [],
      "name": "getStreamerBalance",
      "outputs": [
        {
          "internalType": "uint256",
          "name": "",
          "type": "uint256"
        }
      ],
      "stateMutability": "view",
      "type": "function"
    },
    {
      "inputs": [],
      "name": "withdraw",
      "outputs": [],
      "stateMutability": "nonpayable",
      "type": "function"
    }
  ],
  "transactionHash": "0x5716f3d8e36dd5ebf261689bbfcc5f2ddaef9f4be6d215af8aa4c0a9bd19a540",
  "args": [],
  "numDeployments": 1,
  "solcInputHash": "eef7762df9bd388370e14fab9a2899d7",
  "bytecode": "0x608060405234801561001057600080fd5b50610672806100206000396000f3fe60806040526004361061003f5760003560e01c806327e235e3146100445780633ccfd60b146100815780636c07d2e214610098578063ec00087b146100c3575b600080fd5b34801561005057600080fd5b5061006b60048036038101906100669190610423565b6100df565b6040516100789190610469565b60405180910390f35b34801561008d57600080fd5b506100966100f7565b005b3480156100a457600080fd5b506100ad61020b565b6040516100ba9190610469565b60405180910390f35b6100dd60048036038101906100d89190610423565b610251565b005b60006020528060005260406000206000915090505481565b60008060003373ffffffffffffffffffffffffffffffffffffffff1673ffffffffffffffffffffffffffffffffffffffff1681526020019081526020016000205490506000811161017d576040517f08c379a0000000000000000000000000000000000000000000000000000000008152600401610174906104e1565b60405180910390fd5b3373ffffffffffffffffffffffffffffffffffffffff166108fc829081150290604051600060405180830381858888f193505050501580156101c3573d6000803e3d6000fd5b5060008060003373ffffffffffffffffffffffffffffffffffffffff1673ffffffffffffffffffffffffffffffffffffffff1681526020019081526020016000208190555050565b60008060003373ffffffffffffffffffffffffffffffffffffffff1673ffffffffffffffffffffffffffffffffffffffff16815260200190815260200160002054905090565b600073ffffffffffffffffffffffffffffffffffffffff168173ffffffffffffffffffffffffffffffffffffffff16036102c0576040517f08c379a00000000000000000000000000000000000000000000000000000000081526004016102b79061054d565b60405180910390fd5b60003411610303576040517f08c379a00000000000000000000000000000000000000000000000000000000081526004016102fa906105b9565b60405180910390fd5b346000808373ffffffffffffffffffffffffffffffffffffffff1673ffffffffffffffffffffffffffffffffffffffff16815260200190815260200160002060008282546103519190610608565b925050819055508073ffffffffffffffffffffffffffffffffffffffff163373ffffffffffffffffffffffffffffffffffffffff167f597440e65d8cdea1298e19df50e115bda25508180452d87a7f4f99195fb843a4346040516103b59190610469565b60405180910390a350565b600080fd5b600073ffffffffffffffffffffffffffffffffffffffff82169050919050565b60006103f0826103c5565b9050919050565b610400816103e5565b811461040b57600080fd5b50565b60008135905061041d816103f7565b92915050565b600060208284031215610439576104386103c0565b5b60006104478482850161040e565b91505092915050565b6000819050919050565b61046381610450565b82525050565b600060208201905061047e600083018461045a565b92915050565b600082825260208201905092915050565b7f4e6f2062616c616e636520746f20776974686472617700000000000000000000600082015250565b60006104cb601683610484565b91506104d682610495565b602082019050919050565b600060208201905081810360008301526104fa816104be565b9050919050565b7f496e76616c69642073747265616d657220616464726573730000000000000000600082015250565b6000610537601883610484565b915061054282610501565b602082019050919050565b600060208201905081810360008301526105668161052a565b9050919050565b7f496e76616c696420646f6e6174696f6e20616d6f756e74000000000000000000600082015250565b60006105a3601783610484565b91506105ae8261056d565b602082019050919050565b600060208201905081810360008301526105d281610596565b9050919050565b7f4e487b7100000000000000000000000000000000000000000000000000000000600052601160045260246000fd5b600061061382610450565b915061061e83610450565b9250828201905080821115610636576106356105d9565b5b9291505056fea2646970667358221220335d147417ec41326193dde3273977b422f925f3898cc8ff5639d23d263b39dd64736f6c63430008180033",
  "devdoc": {
    "kind": "dev",
    "methods": {},
    "version": 1
  },
  "userdoc": {
    "kind": "user",
    "methods": {},
    "version": 1
  },
  "storageLayout": {
    "storage": [
      {
        "astId": 5,
        "contract": "contracts/StreamerDonation.sol:StreamerDonation",
        "label": "balances",
        "offset": 0,
        "slot": "0",
        "type": "t_mapping(t_address,t_uint256)"
      }
    ],
    "types": {
      "t_address": {
        "encoding": "inplace",
        "label": "address",
        "numberOfBytes": "20"
      },
      "t_mapping(t_address,t_uint256)": {
        "encoding": "mapping",
        "key": "t_address",
        "label": "mapping(address => uint256)",
        "numberOfBytes": "32",
        "value": "t_uint256"
      },
      "t_uint256": {
        "encoding": "inplace",
        "label": "uint256",
        "numberOfBytes": "32"
      }
    }
  }
}